:02000000552881
:0E000600831203136C088A006B088200080046
:1000140003208A110A128000840AEB0A0319EC0AED
:08002400F003031D0A28080087
:10002C0083120313071E2C280830FB009D30FC00A4
:10003C000530FD00FD0B2028FC0B2028FB0B202895
:10004C00000000000430DE06DE105E10871E402823
:10005C000830FB009D30FC000530FD00FD0B342802
:10006C00FC0B3428FB0B3428000000000230DE06A9
:10007C005E115E10071F54280830FB009D30FC00F9
:10008C000530FD00FD0B4828FC0B4828FB0B4828CD
:0E009C00000000000130DE065E11DE100800DC
:1000AA005626703083160313870086018312860151
:1000BA0087010D30FB00AF30FC00B630FD00FD0BB0
:1000CA006428FC0B6428FB0B642800005E11DE1018
:1000DA005E10DD015D08283C031C79285D08A03EFE
:1000EA0084008001DD0A6F285E1D2A29DF01E001F4
:1000FA0000306002031D83280E305F02031829298D
:10010A005F084E3E840020300002F300F401031C15
:10011A00F4037308E5007408E6000330F20073087C
:10012A00F0007408F10072080319A028F00DF10D0F
:10013A007010FF3E99287008E5007108E600700803
:10014A00E9007108EA0008306507F100660803183B
:10015A00013EF20072086A02031DB528710869029D
:10016A0003182529E701E80100306802031DBF28AA
:10017A00283067020318D9286708A03EF2006708EA
:10018A00013EF00000300318013E6807F1007008D4
:10019A00A03E84000008F000720884007008800005
:1001AA00E70A0319E80AB9286908413EF000033052
:1001BA000318013E6A07F1007008EB007108EC00B1
:1001CA0003208A110A128316C8008312E301E4018C
:1001DA0000306402031DF328043063020318212946
:1001EA0007148710871407110715E101E201620855
:1001FA00003C031D02296108283C031C1D296108D3
:10020A00A03E8400000986000430FC003D30FD0059
:10021A00FD0B0D29FC0B0D290000000007108710AB
:10022A008714071107151620E10A0319E20AFC28A8
:10023A00E30A0319E40AED28E90A0319EA0AA828D5
:10024A00DF0A0319E00A7D283A2BDE1CDB29DF01CD
:10025A00E00100306002031D34290C305F020318EC
:10026A00DA295F08203E840020300002F300F401FE
:10027A00031CF4037308E5007408E6000330F20077
:10028A007308F0007408F100720803195129F00D7F
:10029A00F10D7010FF3E4A297008E5007108E6006A
:1002AA007008E9007108EA0008306507F10066087D
:1002BA000318013EF20072086A02031D66297108DA
:1002CA0069020318D629E701E80100306802031D14
:1002DA0070292830670203188A296708A03EF200AD
:1002EA006708013EF00000300318013E6807F1007C
:1002FA007008A03E84000008F000720884007008AC
:10030A008000E70A0319E80A6A296908413EF000F1
:10031A0003300318013E6A07F1007008EB00710808
:10032A00EC0003208A110A128316C8008312E30123
:10033A00E40100306402031DA42904306302031897
:10034A00D22907148710871407110715E101E20162
:10035A006208003C031DB3296108283C031CCE290E
:10036A006108A03E8400000986000430FC003D308C
:10037A00FD00FD0BBE29FC0BBE2900000000071082
:10038A0087108714071107151620E10A0319E20AD4
:10039A00AD29E30A0319E40A9E29E90A0319EA0ABC
:1003AA005929DF0A0319E00A2E293A2B5E1C8C2AE6
:1003BA00DF01E00100306002031DE52913305F020E
:1003CA0003188B2A5F083A3E840020300002F300AB
:1003DA00F401031CF4037308E5007408E600033013
:1003EA00F2007308F0007408F10072080319022A77
:1003FA00F00DF10D7010FF3EFB297008E500710841
:10040A00E6007008E9007108EA0008306507F100A3
:10041A0066080318013EF20072086A02031D172AD1
:10042A00710869020318872AE701E80100306802A7
:10043A00031D212A2830670203183B2A6708A03EB9
:10044A00F2006708013EF00000300318013E680719
:10045A00F1007008A03E84000008F00072088400D1
:10046A0070088000E70A0319E80A1B2A6908413E56
:10047A00F00003300318013E6A07F1007008EB0030
:10048A007108EC0003208A110A128316C80083122D
:10049A00E301E40100306402031D552A04306302BB
:1004AA000318832A07148710871407110715E10117
:1004BA00E2016208003C031D642A6108283C031C0F
:1004CA007F2A6108A03E8400000986000430FC00EF
:1004DA003D30FD00FD0B6F2AFC0B6F2A0000000067
:1004EA00071087108714071107151620E10A031948
:1004FA00E20A5E2AE30A0319E40A4F2AE90A0319FF
:10050A00EA0A0A2ADF0A0319E00ADF293A2BDF017D
:10051A00E00100306002031D942A0C305F020318C8
:10052A003A2B5F082D3E840020300002F300F401CC
:10053A00031CF4037308E5007408E6000330F200B4
:10054A007308F0007408F10072080319B12AF00D5B
:10055A00F10D7010FF3EAA2A7008E5007108E60046
:10056A007008E9007108EA0008306507F1006608BA
:10057A000318013EF20072086A02031DC62A7108B6
:10058A0069020318362BE701E80100306802031DEF
:10059A00D02A283067020318EA2A6708A03EF20028
:1005AA006708013EF00000300318013E6807F100B9
:1005BA007008A03E84000008F000720884007008E9
:1005CA008000E70A0319E80ACA2A6908413EF000CE
:1005DA0003300318013E6A07F1007008EB00710846
:1005EA00EC0003208A110A128316C8008312E30161
:1005FA00E40100306402031D042B04306302031873
:10060A00322B07148710871407110715E101E2013D
:10061A006208003C031D132B6108283C031C2E2B87
:10062A006108A03E8400000986000430FC003D30C9
:10063A00FD00FD0B1E2BFC0B1E2B000000000710FB
:10064A0087108714071107151620E10A0319E20A11
:10065A000D2BE30A0319E40AFE2AE90A0319EA0A36
:0E066A00B92ADF0A0319E00A8E2A79283B2BF1
:100CAC00203084003D3083120313F0001930EB0028
:080CBC000630EC000A200800DC
:1006820000340034003400340034003400340034C8
:10069200003406345F345F340634003400340034EE
:1006A200003407340734003407340734003400348C
:1006B20014347F347F3414347F347F341434003460
:1006C20024342E346B346B343A3412340034003414
:1006D20046346634303418340C34663462340034B0
:1006E20030347A344F345D3437347A344834003419
:1006F200043407340334003400340034003400344A
:1007020000341C343E346334413400340034003449
:100712000034413463343E341C3400340034003439
:1007220008342A343E341C341C343E342A3408340F
:10073200083408343E343E3408340834003400347B
:1007420000348034E0346034003400340034003447
:1007520008340834083408340834083400340034C7
:100762000034003460346034003400340034003427
:100772006034303418340C34063403340134003419
:100782003E347F34713459344D347F343E34003436
:10079200403442347F347F344034403400340034B7
:1007A20062347334593449346F346634003400345B
:1007B20022346334493449347F34363400340034CB
:1007C20018341C34163453347F347F34503400349C
:1007D20027346734453445347D34393400340034A9
:1007E2003C347E344B344934793430340034003470
:1007F20003340334713479340F3407340034003451
:1008020036347F34493449347F343634003400344A
:1008120006344F34493469343F341E3400340034D2
:10082200003400346634663400340034003400345A
:1008320000348034E634663400340034003400344A
:1008420008341C3436346334413400340034003408
:10085200243424342434243424342434003400341E
:1008620000344134633436341C34083400340034E8
:1008720002340334513459340F3406340034003412
:100882003E347F3441345D345D341F341E340034D1
:100892007C347E34133413347E347C34003400349C
:1008A20041347F347F34493449347F343634003420
:1008B2001C343E34633441344134633422340034D2
:1008C20041347F347F34413463343E341C34003449
:1008D20041347F347F3449345D34413463340034ED
:1008E20041347F347F3449341D34013403340034BD
:1008F2001C343E3463344134513473347234003422
:100902007F347F34083408347F347F340034003439
:10091200003441347F347F344134003400340034B5
:1009220030347034403441347F343F340134003445
:1009320041347F347F3408341C34773463340034D8
:1009420041347F347F344134403460347034003475
:100952007F347F340E341C340E347F347F340034C1
:100962007F347F3406340C3418347F347F340034BF
:100972001C343E346334413463343E341C3400341A
:1009820041347F347F34493409340F34063400341F
:100992001E343F34213471347F345E3400340034E9
:1009A20041347F347F34093419347F34663400345F
:1009B20026346F344D3459347334323400340034B5
:1009C200033441347F347F344134033400340034FF
:1009D2007F347F34403440347F347F3400340034F9
:1009E2001F343F34603460343F341F3400340034E9
:1009F2007F347F343034183430347F347F340034E1
:100A0200433467343C3418343C3467344334003460
:100A120007344F34783478344F3407340034003498
:100A220047346334713459344D3467347334003489
:100A320000347F347F344134413400340034003494
:100A42000134033406340C34183430346034003446
:100A52000034413441347F347F3400340034003474
:100A620008340C340634033406340C3408340034AD
:100A720080348034803480348034803480348034D4
:100A820000340034033407340434003400340034B6
:100A920020347434543454343C3478344034003484
:100AA20041347F343F34483448347834303400346D
:100AB20038347C34443444346C34283400340034C4
:100AC20030347834483449343F347F34403400344D
:100AD20038347C34543454345C34183400340034A4
:100AE20048347E347F3449340334023400340034D1
:100AF2009834BC34A434A434F8347C340434003440
:100B020041347F347F34083404347C347834003404
:100B1200003444347D347D344034003400340034B5
:100B22006034E03480348034FD347D340034003469
:100B320041347F347F34103438346C3444340034DC
:100B4200003441347F347F34403400340034003484
:100B52007C347C34183438341C347C34783400349B
:100B62007C347C34043404347C34783400340034EF
:100B720038347C34443444347C34383400340034E3
:100B82008434FC34F834A43424343C34183400342F
:100B920018343C342434A434F834FC34843400341F
:100BA20044347C3478344C3404341C3418340034E7
:100BB20048345C34543454347434243400340034AF
:100BC200003404343E347F3444342434003400345A
:100BD2003C347C34403440343C347C344034003443
:100BE2001C343C34603460343C341C3400340034F3
:100BF2003C347C347034383470347C343C340034CB
:100C020044346C343834103438346C344434003462
:100C12009C34BC34A034A034FC347C340034003422
:100C22004C34643474345C344C34643400340034F2
:100C3200423461346E3467346C3461344434653424
:0A0C42007334683420342034003489
:100C4C00573465346C3463346F346D34653420340C
:0A0C5C003A342934203420340034E7
:100C66004E34693463346534203454344F3420347C
:100C76006D34653465347434203459344F34553406
:080C86002E3420342034003428
:100C8E0045344934443420344D347534623461343F
:0E0C9E00723461346B342E3420342034003430
:02400E005A0056
:00000001FF
