:100000000C945E000C9486000C9486000C94860080
:100010000C9486000C9486000C9486000C94860048
:100020000C9486000C9486000C9486000C94860038
:100030000C9486000C9486000C9486000C94860028
:100040000C9473020C9486000C94E3020C94BD0291
:100050000C9486000C9486000C9486000C94860008
:100060000C9486000C9486000000000024002700F9
:100070002A0000000000250028002B0004040404CE
:100080000404040402020202020203030303030342
:10009000010204081020408001020408102001021F
:1000A00004081020000000080002010000030407FB
:1000B00000000000000000001503140511241FBEFD
:1000C000CFEFD8E0DEBFCDBF21E0A2E2B1E001C0BA
:1000D0001D92A23DB207E1F711E0A0E0B1E0E2ED30
:1000E000FEE002C005900D92A232B107D9F710E0F0
:1000F000CDE5D0E004C02197FE010E945105CC352A
:10010000D107C9F70E948B030C945C070C94000084
:1001100090E0FC01EC55FF4F2491FC01E057FF4FAC
:100120003491FC01E458FF4FE491EE2309F43CC004
:10013000222339F1233091F038F42130A9F0223014
:1001400001F584B58F7D12C0273091F02830A1F0E1
:100150002430B9F4809180008F7D03C080918000AD
:100160008F77809380000DC084B58F7784BD09C0E0
:100170008091B0008F7703C08091B0008F7D809315
:10018000B000F0E0EE0FFF1FEE58FF4FA591B491C5
:100190009FB7F894611104C08C913095382302C048
:1001A000EC913E2B3C939FBF08953FB7F89480910C
:1001B000230190912401A0912501B091260126B53B
:1001C000A89B05C02F3F19F00196A11DB11D3FBF8F
:1001D000BA2FA92F982F8827820F911DA11DB11D1D
:1001E000BC01CD0142E0660F771F881F991F4A9519
:1001F000D1F708950895CF92DF92EF92FF920F9377
:100200001F93CF93DF936C017A018B01C0E0D0E0A4
:10021000CE15DF0581F0D8016D918D01D601ED91EC
:10022000FC910190F081E02DC6010995892B11F018
:100230002196EECF7E01C701DF91CF911F910F91E3
:10024000FF90EF90DF90CF90089580E090E00895C8
:10025000FC01538D448D252F30E0842F90E0821BCC
:10026000930B541710F0CF96089501970895FC0151
:10027000918D828D981761F0828DDF01A80FB11DDD
:100280005D968C91928D9F5F9F73928F90E0089501
:100290008FEF9FEF08952FB7F894809127019091E9
:1002A0002801A0912901B0912A012FBF8093330129
:1002B00090933401A0933501B09336018BE291E025
:1002C0000E94370197FF26C02FB7F894809127012D
:1002D00090912801A0912901B0912A012FBF40914E
:1002E0003301509134016091350170913601841BC6
:1002F000950BA60BB70B40912F01509130016091E7
:1003000031017091320184179507A607B707B0F243
:100310008FEF9FEF0895FC01918D828D981731F03A
:10032000828DE80FF11D858D90E008958FEF9FEF8E
:100330000895FC01918D228D892F90E0805C9F4F64
:10034000821B91098F73992708958BE291E00E9497
:10035000990121E0892B09F420E0822F0895FC0106
:10036000848DDF01A80FB11DA35ABF4F2C91848D3E
:1003700090E001968F739927848FA689B7892C9373
:10038000A089B1898C91837080648C93938D848DC6
:10039000981306C00288F389E02D80818F7D8083C9
:1003A0000895EF92FF920F931F93CF93DF93EC0189
:1003B00081E0888F9B8D8C8D981305C0E889F98921
:1003C000808185FD26C0F62E0B8D10E00F5F1F4F3C
:1003D0000F731127E02E8C8DE8120CC00FB607FCAE
:1003E000FACFE889F989808185FFF5CFCE010E9497
:1003F000AF01F1CF8B8DFE01E80FF11DE35AFF4FE6
:10040000F0829FB7F8940B8FEA89FB898081806224
:100410000AC09FB7F894EE89FF896083E889F9895B
:1004200080818370806480839FBF81E090E0DF9152
:10043000CF911F910F91FF90EF900895CF93DF938D
:10044000EC01888D8823C9F0EA89FB89808185FDCC
:1004500005C0A889B9898C9186FD0FC00FB607FC2D
:10046000F5CF808185FFF2CFA889B9898C9185FF6E
:10047000EDCFCE010E94AF01E7CFDF91CF9108957C
:1004800080E090E0892B29F00E94A50181110C9455
:10049000000008950E943E070F931F93CF93DF93B0
:1004A000EC0188819981009729F02A813B812617E8
:1004B000370788F48B016F5F7F4F0E9478060097A3
:1004C00061F0998388831B830A832C813D81232BD0
:1004D00011F4FC01108281E001C080E0DF91CF9136
:1004E0001F910F9108951F920F920FB60F92112432
:1004F0002F933F938F939F93AF93BF938091270147
:1005000090912801A0912901B0912A0130912201F6
:1005100023E0230F2D3720F40196A11DB11D05C046
:1005200026E8230F0296A11DB11D2093220180937E
:10053000270190932801A0932901B0932A0180916B
:10054000230190912401A0912501B09126010196EB
:10055000A11DB11D8093230190932401A093250137
:10056000B0932601BF91AF919F918F913F912F91B1
:100570000F900FBE0F901F9018951F920F920FB6FD
:100580000F9211242F933F934F935F936F937F9319
:100590008F939F93AF93BF93EF93FF938BE291E081
:1005A0000E94AF01FF91EF91BF91AF919F918F9109
:1005B0007F916F915F914F913F912F910F900FBE5F
:1005C0000F901F9018951F920F920FB60F92112443
:1005D0002F938F939F93EF93FF93E0913B01F091C3
:1005E0003C018081E0914101F091420182FD12C005
:1005F0009081809144018F5F8F7320914501821714
:1006000051F0E0914401F0E0E55DFE4F958F80935D
:10061000440101C08081FF91EF919F918F912F91B3
:100620000F900FBE0F901F90189510922E011092F0
:100630002D0188EE93E0A0E0B0E080932F0190932D
:100640003001A0933101B09332018AE091E09093A0
:100650002C0180932B0185EC90E0909338018093DE
:10066000370184EC90E090933A018093390180EC5B
:1006700090E090933C0180933B0181EC90E090935B
:100680003E0180933D0182EC90E090934001809385
:100690003F0186EC90E090934201809341011092DB
:1006A00044011092450110924601109247011092A8
:1006B000C9011092C8011092CB011092CA01109288
:1006C000CD011092CC0160E070E088EC91E00E94D6
:1006D0004C022091C8013091C901811113C021152C
:1006E000310519F0C9010E94EF051092C90110925D
:1006F000C8011092CD011092CC011092CB01109242
:10070000CA0108951092CD011092CC016AE171E006
:10071000C9010C945507CF93DF93CDB7DEB7289767
:100720000FB6F894DEBF0FBECDBF789484B582605B
:1007300084BD84B5816084BD85B5826085BD85B585
:10074000816085BD80916E00816080936E00109203
:10075000810080918100826080938100809181007E
:10076000816080938100809180008160809380000F
:100770008091B10084608093B1008091B00081606D
:100780008093B00080917A00846080937A00809199
:100790007A00826080937A0080917A0081608093F1
:1007A0007A0080917A00806880937A001092C1006C
:1007B000E0913B01F0913C0182E08083E0913701C0
:1007C000F09138011082E0913901F0913A018FECFB
:1007D000808310924301E0913F01F091400186E057
:1007E0008083E0913D01F0913E01808180618083B2
:1007F000E0913D01F0913E01808188608083E0912D
:100800003D01F0913E01808180688083E0913D014F
:10081000F0913E0180818F7D8083EDE9F0E02491AD
:10082000E9E8F0E08491882399F090E0880F991F1F
:10083000FC01E859FF4FA591B491FC01EE58FF4F20
:10084000859194918FB7F894EC91E22BEC938FBF44
:100850008BE291E00E949901892B09F47DC01A82F4
:1008600019821C821B821E821D8260E070E0CE0114
:1008700001960E944C0229813A8181110DC02115F7
:10088000310519F0C9010E94EF051A8219821E82F2
:100890001D821C821B8207C01E821D826AE171E0DC
:1008A000C9010E9455070E944B0197FD1BC08F8311
:1008B00018860D811E810F5F1F4FB801CE01019672
:1008C0000E944C02882379F329813A818D819E818F
:1008D000BE01695F7F4F820F931F0E9455071E83E1
:1008E0000D83E1CF8091C8019091C901009741F03B
:1008F00069817A816115710509F083C00E94EF0555
:1009000089819A819093C9018093C8018B819C81D0
:100910009093CB018093CA018D819E819093CD01EC
:100920008093CC011A82198289819A810E94EF05F5
:100930004091CC015091CD016091C8017091C901E5
:100940008BE291E00E94FB0042E050E068E171E040
:100950008BE291E00E94FB008091CC019091CD014F
:10096000892B71F06BE171E08091C8019091C90110
:100970000E944C07892B21F461E08DE00E948800E1
:100980008091CC019091CD01892B71F06EE171E0E5
:100990008091C8019091C9010E944C07892B21F4D4
:1009A00060E08DE00E9488000E94D5006B017C0110
:1009B00084E6882E912CA12CB12C0E94D500DC015C
:1009C000CB018C199D09AE09BF09883E9340A10552
:1009D000B10598F321E0821A9108A108B10888EEC8
:1009E000C80E83E0D81EE11CF11C81149104A104FF
:1009F000B10419F78BE291E00E941E020E944002AE
:100A000027CF4091CA015091CB012D813E814217E1
:100A1000530708F473CF0E9455078D819E819093F0
:100A2000CD018093CC0180CF8091C8019091C90104
:100A30000C94EF052F923F924F925F926F927F92AC
:100A40008F929F92AF92BF92CF92DF92EF92FF92DE
:100A50000F931F93CF93DF93CDB7DEB7CA1BDB0B8A
:100A60000FB6F894DEBF0FBECDBF09942A8839882F
:100A700048885F846E847D848C849B84AA84B98436
:100A8000C884DF80EE80FD800C811B81AA81B98142
:100A9000CE0FD11D0FB6F894DEBF0FBECDBFED0156
:100AA0000895EE0FFF1F0590F491E02D09940F9328
:100AB0001F93CF93DF938230910510F482E090E092
:100AC000E091D001F091D10120E030E0A0E0B0E071
:100AD000309719F1408151810281138148175907DC
:100AE000C8F08417950769F4109731F012960C93AB
:100AF000129713961C9327C00093D0011093D10135
:100B000022C02115310519F04217530718F49A0134
:100B1000BD01EF01DF01F801DBCF21153105F9F04F
:100B2000281B390B2430310580F48A819B816115A3
:100B3000710521F0FB019383828304C09093D1015E
:100B40008093D001FE01329644C0FE01E20FF31FF4
:100B50008193919322503109398328833AC020919F
:100B6000CE013091CF01232B41F42091020130912D
:100B700003013093CF012093CE01209100013091E9
:100B800001012115310541F42DB73EB74091040113
:100B900050910501241B350BE091CE01F091CF015E
:100BA000E217F307A0F42E1B3F0B2817390778F044
:100BB000AC014E5F5F4F2417350748F04E0F5F1FA3
:100BC0005093CF014093CE018193919302C0E0E016
:100BD000F0E0CF01DF91CF911F910F910895CF9356
:100BE000DF93009709F481C0FC01329713821282CF
:100BF000A091D001B091D101109781F42081318171
:100C0000820F931F2091CE013091CF012817390711
:100C100051F5F093CF01E093CE0167C0ED0120E0E4
:100C200030E0CE17DF0740F44A815B819E01411519
:100C30005105F1F0EA01F5CFD383C28340815181A0
:100C4000840F951FC817D90759F488819981840F9B
:100C5000951F0296918380838A819B8193838283EF
:100C60002115310529F4F093D101E093D0013DC065
:100C7000E901FB83EA8349915991C40FD51FEC1711
:100C8000FD0761F480819181840F951F0296E9012F
:100C900099838883828193819B838A83E0E0F0E05B
:100CA00012968D919C911397009719F0FD01DC012C
:100CB000F7CF8D919C9111979D012E5F3F4F820F31
:100CC000931F2091CE013091CF012817390769F485
:100CD000309729F41092D1011092D00102C01382F2
:100CE0001282B093CF01A093CE01DF91CF910895EE
:100CF000A0E0B0E0EEE7F6E00C941E05EC010097F2
:100D000021F4CB010E945705B4C0FC01E60FF71F88
:100D10009C0122503109E217F30708F4A8C0D90159
:100D20000D911C91119706171707B0F005301105AA
:100D300008F49BC0C80104978617970708F495C06C
:100D400002501109061B170B019311936D937C93AD
:100D5000CF010E94EF0589C05B01A01AB10A4C01C6
:100D6000800E911EA091D001B091D101612C712C07
:100D7000E12CF12C109709F446C08D919C911197AC
:100D8000A815B905B1F56C0142E0C40ED11CCA1416
:100D9000DB0478F14C018A189B08640142E0C40E20
:100DA000D11C1296BC9012971396AC91B5E0CB165D
:100DB000D10440F0B282A38391828082D9016D93E5
:100DC0007C9309C00E5F1F4F800F911FF901918323
:100DD0008083EB2DFA2FE114F10431F0D701139643
:100DE000FC93EE93129741C0F093D101E093D001B0
:100DF0003CC06816790608F43C017D0112960D90FE
:100E0000BC91A02DB7CF8091CE019091CF018816D3
:100E10009906E1F466167706C8F480910001909176
:100E20000101009741F48DB79EB7409104015091A4
:100E30000501841B950BE817F907C8F4F093CF015F
:100E4000E093CE01F901718360830FC0CB010E9452
:100E500057057C01009759F0A801BE010E94430785
:100E6000CE010E94EF05C70104C0CE0102C080E0A0
:100E700090E0CDB7DEB7EEE00C943A0581E090E06B
:100E8000F8940C945C07FB01DC0102C001900D9208
:100E900041505040D8F70895FB01DC018D9101903D
:100EA00080190110D9F3990B0895FB01DC01019021
:100EB0000D920020E1F7089510E0CDE5D0E004C0E8
:100EC000FE010E9451052196CE35D107C9F7F8944D
:020ED000FFCF52
:100ED2000000D201800000000000D101FB002801C7
:100EE2001E02990137018B010D0A006F6E006F66B9
:020EF200660098
:00000001FF
