:100000000C945D000C9485000C9485000C94850084
:100010000C9485000C9485000C9485000C9485004C
:100020000C9485000C9485000C9485000C9485003C
:100030000C9485000C9485000C9485000C9485002C
:100040000C942B020C9485000C949B020C9475026A
:100050000C9485000C9485000C9485000C9485000C
:100060000C9485000C9485000000000024002700FB
:100070002A0000000000250028002B0004040404CE
:100080000404040402020202020203030303030342
:10009000010204081020408001020408102001021F
:1000A00004081020000000080002010000030407FB
:1000B0000000000000000000B70311241FBECFEFB6
:1000C000D8E0DEBFCDBF11E0A0E0B1E0E2EEF7E0A6
:1000D00002C005900D92AA32B107D9F721E0AAE239
:1000E000B1E001C01D92A13DB207E1F710E0CDE5FE
:1000F000D0E004C02197FE010E94E403CC35D10773
:10010000C9F70E94CD020C94EF030C940000E1EBC0
:10011000F0E09491EDE9F0E02491E9E8F0E0E49179
:10012000EE2309F43CC0992339F1933091F038F46F
:100130009130A9F0923001F594B59F7D12C09730AF
:1001400091F09830A1F09430B9F4909180009F7DA7
:1001500003C0909180009F77909380000DC094B56C
:100160009F7794BD09C09091B0009F7703C0909194
:10017000B0009F7D9093B000F0E0EE0FFF1FEE58AF
:10018000FF4FA591B4919FB7F894811104C08C9151
:100190002095282302C0EC912E2B2C939FBF08950D
:1001A0003FB7F8948091300190913101A0913201D4
:1001B000B091330126B5A89B05C02F3F19F00196D9
:1001C000A11DB11D3FBFBA2FA92F982F8827820FDD
:1001D000911DA11DB11DBC01CD0142E0660F771F2D
:1001E000881F991F4A95D1F70895CF92DF92EF9219
:1001F000FF920F931F93CF93DF936C017A018B01D2
:10020000C0E0D0E0CE15DF0581F0D8016D918D0101
:10021000D601ED91FC910190F081E02DC601099588
:10022000892B11F02196EECF7E01C701DF91CF918E
:100230001F910F91FF90EF90DF90CF900895089558
:1002400080E090E00895FC01538D448D252F30E02F
:10025000842F90E0821B930B541710F0CF960895D3
:1002600001970895FC01918D828D981761F0828D20
:10027000DF01A80FB11D5D968C91928D9F5F9F73DA
:10028000928F90E008958FEF9FEF0895FC01918D7C
:10029000828D981731F0828DE80FF11D858D90E0E9
:1002A00008958FEF9FEF0895FC01918D228D892F86
:1002B00090E0805C9F4F821B91098F73992708956E
:1002C00084E391E00E94540121E0892B09F420E0AD
:1002D000822F0895FC01848DDF01A80FB11DA35A60
:1002E000BF4F2C91848D90E001968F739927848F56
:1002F000A689B7892C93A089B1898C918370806479
:100300008C93938D848D981306C00288F389E02D19
:1003100080818F7D80830895EF92FF920F931F93CA
:10032000CF93DF93EC0181E0888F9B8D8C8D9813A8
:1003300005C0E889F989808185FD26C0F62E0B8DE0
:1003400010E00F5F1F4F0F731127E02E8C8DE81206
:100350000CC00FB607FCFACFE889F989808185FFC8
:10036000F5CFCE010E946A01F1CF8B8DFE01E80F1F
:10037000F11DE35AFF4FF0829FB7F8940B8FEA8983
:10038000FB89808180620AC09FB7F894EE89FF895B
:100390006083E889F98980818370806480839FBF4E
:1003A00081E090E0DF91CF911F910F91FF90EF904E
:1003B0000895CF93DF93EC01888D8823C9F0EA89F3
:1003C000FB89808185FD05C0A889B9898C9186FD4E
:1003D0000FC00FB607FCF5CF808185FFF2CFA8894B
:1003E000B9898C9185FFEDCFCE010E946A01E7CFDC
:1003F000DF91CF91089580E090E0892B29F00E9451
:10040000600181110C940000089542E050E062E127
:1004100071E084E391E00C94F500CF93DF930097B3
:1004200079F0FC0101900020E9F73197AF01481BFA
:10043000590BBC0184E391E00E94F500EC0102C07D
:10044000C0E0D0E00E9405028C0F9D1FDF91CF918C
:1004500008950E94EA031F920F920FB60F92112483
:100460002F933F938F939F93AF93BF9380912C01D2
:1004700090912D01A0912E01B0912F0130912B016F
:1004800023E0230F2D3720F40196A11DB11D05C0D7
:1004900026E8230F0296A11DB11D20932B01809306
:1004A0002C0190932D01A0932E01B0932F018091E8
:1004B000300190913101A0913201B0913301019648
:1004C000A11DB11D8093300190933101A0933201A1
:1004D000B0933301BF91AF919F918F913F912F9135
:1004E0000F900FBE0F901F9018951F920F920FB68E
:1004F0000F9211242F933F934F935F936F937F93AA
:100500008F939F93AF93BF93EF93FF9384E391E017
:100510000E946A01FF91EF91BF91AF919F918F91DE
:100520007F916F915F914F913F912F910F900FBEEF
:100530000F901F9018951F920F920FB60F921124D3
:100540002F938F939F93EF93FF93E0914401F0914A
:1005500045018081E0914A01F0914B0182FD12C07A
:10056000908180914D018F5F8F7320914E01821792
:1005700051F0E0914D01F0E0EC5CFE4F958F8093DF
:100580004D0101C08081FF91EF919F918F912F913B
:100590000F900FBE0F901F901895789484B58260CD
:1005A00084BD84B5816084BD85B5826085BD85B517
:1005B000816085BD80916E00816080936E00109295
:1005C0008100809181008260809381008091810010
:1005D00081608093810080918000816080938000A1
:1005E0008091B10084608093B1008091B0008160FF
:1005F0008093B00080917A00846080937A0080912B
:100600007A00826080937A0080917A008160809382
:100610007A0080917A00806880937A001092C100FD
:10062000E0914401F091450182E08083E091400136
:10063000F09141011082E0914201F09143018FEC71
:10064000808310924C01E0914801F091490186E0CD
:100650008083E0914601F091470180818061808331
:10066000E0914601F0914701808188608083E091AC
:100670004601F0914701808180688083E0914601C6
:10068000F091470180818F7D8083EDE9F0E0249136
:10069000E9E8F0E08491882399F090E0880F991FB1
:1006A000FC01E859FF4FA591B491FC01EE58FF4FB2
:1006B000859194918FB7F894EC91E22BEC938FBFD6
:1006C00084E391E00E945401181619061CF584E396
:1006D00091E00E94320180932A01682F84E391E027
:1006E0000E948C010E94050280912A01813339F415
:1006F00081E00E94870085E191E00E940D028091D7
:100700002A01803339F480E00E9487008FE191E074
:100710000E940D020E94D0006B017C0184E6882EAD
:10072000912CA12CB12C0E94D000DC01CB018C19A2
:100730009D09AE09BF09883E9340A105B10598F314
:1007400021E0821A9108A108B10888EEC80E83E062
:10075000D81EE11CF11C81149104A104B10419F705
:1007600084E391E00E94D9010E94FB01A9CFE4E358
:10077000F1E01382128288EE93E0A0E0B0E084837F
:100780009583A683B78384E091E09183808385EC91
:1007900090E09587848784EC90E09787868780EC4B
:1007A00090E0918B808B81EC90E0938B828B82EC3C
:1007B00090E0958B848B86EC90E0978B868B118EE6
:1007C000128E138E148E0895EE0FFF1F0590F49174
:1007D000E02D099481E090E0F8940C94EF03F894F4
:0207E000FFCF49
:1007E200000000008C01F5002301D90154013201FF
:1007F20046010D0A006C4544204953204F4E006CBF
:0A0802004544204953204F464600AC
:107E0000112484B714BE81FFF0D085E080938100F7
:107E100082E08093C00088E18093C10086E0809377
:107E2000C20080E18093C4008EE0C9D0259A86E02C
:107E300020E33CEF91E0309385002093840096BBD3
:107E4000B09BFECF1D9AA8958150A9F7CC24DD24C4
:107E500088248394B5E0AB2EA1E19A2EF3E0BF2EE7
:107E6000A2D0813461F49FD0082FAFD0023811F036
:107E7000013811F484E001C083E08DD089C08234E0
:107E800011F484E103C0853419F485E0A6D080C0E4
:107E9000853579F488D0E82EFF2485D0082F10E0AE
:107EA000102F00270E291F29000F111F8ED06801E7
:107EB0006FC0863521F484E090D080E0DECF843638
:107EC00009F040C070D06FD0082F6DD080E0C81688
:107ED00080E7D80618F4F601B7BEE895C0E0D1E017
:107EE00062D089930C17E1F7F0E0CF16F0E7DF06D8
:107EF00018F0F601B7BEE89568D007B600FCFDCFD4
:107F0000A601A0E0B1E02C9130E011968C91119780
:107F100090E0982F8827822B932B1296FA010C0160
:107F200087BEE89511244E5F5F4FF1E0A038BF0790
:107F300051F7F601A7BEE89507B600FCFDCF97BE46
:107F4000E89526C08437B1F42ED02DD0F82E2BD052
:107F50003CD0F601EF2C8F010F5F1F4F84911BD097
:107F6000EA94F801C1F70894C11CD11CFA94CF0C13
:107F7000D11C0EC0853739F428D08EE10CD085E9AC
:107F80000AD08FE07ACF813511F488E018D01DD067
:107F900080E101D065CF982F8091C00085FFFCCF94
:107FA0009093C60008958091C00087FFFCCF809118
:107FB000C00084FD01C0A8958091C6000895E0E648
:107FC000F0E098E1908380830895EDDF803219F02E
:107FD00088E0F5DFFFCF84E1DECF1F93182FE3DFCA
:107FE0001150E9F7F2DF1F91089580E0E8DFEE27F6
:047FF000FF270994CA
:027FFE00040479
:0400000300007E007B
:00000001FF
