:100000000C9462000C948A000C948A000C948A0070
:100010000C948A000C948A000C948A000C948A0038
:100020000C948A000C948A000C948A000C948A0028
:100030000C948A000C948A000C948A000C948A0018
:100040000C9442050C948A000C948A000C948A004B
:100050000C948A000C948A000C948A000C948A00F8
:100060000C948A000C948A000000000024002700F1
:100070002A0000000000250028002B0000000000DE
:1000800023002600290004040404040404040202DA
:100090000202020203030303030301020408102007
:1000A0004080010204081020010204081020000012
:1000B0000008000201000003040700000000000027
:1000C0000000E10611241FBECFEFD8E0DEBFCDBF98
:1000D00012E0A0E0B1E0ECECFEE002C005900D9271
:1000E000A032B107D9F722E0A0E2B2E001C01D9230
:1000F000A73BB207E1F710E0C2E6D0E004C02197C9
:10010000FE010E945907C136D107C9F70E948C052C
:100110000C9464070C94000096E0899FD001112490
:10012000A05DBD4F90967C936E935F9791E0919602
:100130009C93919790919C02E0919D02F0919E0278
:10014000992339F0309751F0811108C080914C0209
:1001500004C0309719F05C968C9109940895CF9261
:10016000DF92EF92FF920F931F9396E0899FF00129
:100170001124E05DFD4F11A2278D30A12130310502
:1001800039F158F02230310509F447C023303105E8
:1001900009F04FC060E070E044C0662309F449C034
:1001A00061E070E00E948C002FB7F89480912C02DF
:1001B00090912D02A0912E02B0912F022FBF80931B
:1001C000880290938902A0938A02B0938B0231C077
:1001D0009FB7F894C0902C02D0902D02E0902E0290
:1001E000F0902F029FBF0091880210918902209108
:1001F0008A0230918B02C01AD10AE20AF30A0091F6
:100200009A0210919B0220E030E00C151D052E058E
:100210003F0518F462E070E004C061110AC063E0B9
:1002200070E01F910F91FF90EF90DF90CF900C94B2
:100230008C001F910F91FF90EF90DF90CF90089569
:10024000833081F028F4813099F08230A1F0089554
:100250008730A9F08830B9F08430D1F480918000E3
:100260008F7D03C0809180008F77809380000895F8
:1002700084B58F7702C084B58F7D84BD0895809149
:10028000B0008F7703C08091B0008F7D8093B00065
:100290000895CF93DF93282F30E0F901E255FF4F07
:1002A0008491F901E656FF4FD491F901EA57FF4FC7
:1002B000C491CC2391F081110E942001EC2FF0E039
:1002C000EE0FFF1FE458FF4FA591B491EC91ED2381
:1002D00081E090E021F480E002C080E090E0DF91D6
:1002E000CF910895862F0C9449011F93CF93DF93EC
:1002F000282F30E0F901E255FF4F8491F901E656CD
:10030000FF4FD491F901EA57FF4FC491CC23C1F0BC
:10031000162F81110E942001EC2FF0E0EE0FFF1F3D
:10032000EE58FF4FA591B4919FB7F894111104C0F6
:100330008C91D095D82302C0EC91DE2BDC939FBF2B
:10034000DF91CF911F910895862F642F0C94750132
:10035000CF93DF9390E0FC01E656FF4F2491FC0120
:10036000EA57FF4F8491882361F190E0880F991F2D
:10037000FC01E859FF4FC591D491FC01EE58FF4FA5
:10038000A591B491611109C09FB7F8948881209517
:1003900082238883EC912E230BC0623061F49FB7D7
:1003A000F8948881322F309583238883EC912E2B0B
:1003B0002C939FBF06C08FB7F894E8812E2B28831B
:1003C0008FBFDF91CF910895862F642F0C94A801E1
:1003D0006F927F928F929F92AF92BF92CF92DF9255
:1003E000EF92FF920F931F93CF93DF9381E080935F
:1003F0009C028FB7F89440912C0250912D0260918D
:100400002E0270912F028FBF80918C0290918D02ED
:10041000A0918E02B0918F02481B590B6A0B7B0B87
:100420008091980290919902A0E0B0E0841795071E
:10043000A607B70708F0F0C0C0E080919602C81781
:1004400030F0712C812C912C5401839440C0E091A8
:100450009202F0919302EC0FF11D62E080810E9404
:10046000A801CF5FEACFC62DD0E0E0919202F091D3
:100470009302EC0FFD1F80810E9449012496CC0F4E
:10048000DD1FC05DDD4F892B09F04BC0888199814C
:100490008C299D299983888363948091960268169C
:1004A00010F3E0919402F0919502E00FF11F61E0EA
:1004B00080810E9475018091940290919502FC01C7
:1004C000E00FF11F60E080810E94A8017394809189
:1004D0009702781658F5072D10E0E0919402F091FC
:1004E0009502E00FF11F61E080810E94A801E09178
:1004F0009402F0919502E00FF11F60E080810E946C
:100500007501D501C401072C04C0880F991FAA1FCB
:10051000BB1F0A94D2F76C017C01E094F094612C2B
:10052000BCCF888199818E219F21B4CF20E3E22E18
:1005300022E0F22E8CE692E0F7012FEF3FEF478D9D
:1005400050A1452B21F4148E368F258F11A236969B
:100550008E179F07A1F7C0E096E0D92E80919602F2
:10056000C81758F5D0E00C2F10E0000F111F085CE1
:100570001D4F20919702D217F0F4F801408151816C
:100580000D2E02C0569547950A94E2F7642F6170CC
:10059000C29F900111242D0F311DE0E3F2E080E0B5
:1005A000A58DB68D2A173B0709F456C08F5F369686
:1005B0008A30B1F735C0CF5FD1CF80E0F70191A18C
:1005C000911181E0F6E0EF0EF11C9CE6E91692E055
:1005D000F906A1F79FB7F89440912C0250912D0293
:1005E00060912E0270912F029FBF40938C02509316
:1005F0008D0260938E0270938F02882369F0809140
:100600005102882349F080914F0290915002019746
:1006100019F480914C022AC010929C0280E026C0FE
:1006200040FF1CC0E0E3F2E080E090E0448D411127
:1006300017C0E0919002F0919102E20FF31F408108
:10064000D89EF001D99EF00D1124E05DFD4F448F3E
:10065000368F258F10A2178E0E94AF00DF5F89CFE3
:10066000019636968A30910509F7F8CFDF91CF9140
:100670001F910F91FF90EF90DF90CF90BF90AF90C0
:100680009F908F907F906F9008953FB7F8948091DE
:10069000280290912902A0912A02B0912B0226B53E
:1006A000A89B05C02F3F19F00196A11DB11D3FBFAA
:1006B000BA2FA92F982F8827820F911DA11DB11D38
:1006C000BC01CD0142E0660F771F881F991F4A9534
:1006D000D1F708958F929F92AF92BF92CF92DF92FF
:1006E000EF92FF920E9445034B015C0180EDC82E02
:1006F00087E0D82EE12CF12C0E944503DC01CB01D0
:1007000088199909AA09BB09883E9340A105B1053A
:1007100098F321E0C21AD108E108F10888EE880EAA
:1007200083E0981EA11CB11CC114D104E104F104A2
:1007300019F7FF90EF90DF90CF90BF90AF909F9010
:100740008F900895CF92DF92EF92FF920F931F93B5
:10075000CF93DF936C017A018B01C0E0D0E0CE151E
:10076000DF0581F0D8016D918D01D601ED91FC91ED
:100770000190F081E02DC6010995892B11F0219699
:10078000EECF7E01C701DF91CF911F910F91FF90B6
:10079000EF90DF90CF900895CF93DF93EC0160E06E
:1007A0008E810E94750161E08E810E94750160E07A
:1007B0008E810E9475018BE891E00197F1F7DF913E
:1007C000CF910895CF92DF92EF92FF920F931F93F4
:1007D000CF93DF936C017C0187E0E80EF11CC0E051
:1007E000D0E0062F10E0B8010C2E02C07595679579
:1007F0000A94E2F76170F70181917F010E9475010F
:100800002196C430D10579F7C601DF91CF911F91B0
:100810000F91FF90EF90DF90CF900C94CC03CF928C
:10082000DF92EF92FF920F931F93CF93DF93EC0130
:10083000F62E642F8C810E9475018D818F3F19F0F7
:1008400060E00E9475018F850F2D10E084FF25C0A8
:100850006E0187E0C80ED11CE12CF12CB8010E2CE2
:1008600002C0759567950A94E2F76170F60181916F
:100870006F010E947501FFEFEF1AFF0A88E0E8168A
:10088000F10461F7CE01DF91CF911F910F91FF909D
:10089000EF90DF90CF900C94CC03B80184E0759575
:1008A00067958A95E1F7CE010E94E2036F2DCE0194
:1008B000DF91CF911F910F91FF90EF90DF90CF903C
:1008C0000C94E20340E0682F8FE992E00C940F044F
:1008D00081E00E9462048BE39FE10197F1F70895A4
:1008E000CF93DF93623028F09091AE02986090939E
:1008F000AE026093B2021092B30290E49093B402FD
:100900008093B50290E0805C9F4F8093B60261E0D7
:100910008091A3020E94A8018091A4028F3F19F048
:1009200061E00E94A80161E08091A5020E94A801F7
:10093000CFE9D2E09E012F5932408091AE0284FD72
:1009400003C084E090E002C088E090E02196281780
:1009500039072CF461E08E810E94A801EBCF8BE374
:100960009DE00197F1F760E08091A3020E9475017C
:1009700060E08091A5020E9475018091A4028F3FE2
:1009800019F060E00E9475018091AE0284FD20C0E4
:1009900063E08FE992E00E94E203CBE4D6E4CE016B
:1009A0000197F1F763E08FE992E00E94E20321975B
:1009B000F1F763E08FE992E00E94E20383E592E0C1
:1009C0000197F1F762E08FE992E00E94E20315C01F
:1009D00080620E9462048BE496E40197F1F78091B3
:1009E000AE0280620E94620483E592E00197F1F713
:1009F0008091AE0280620E9462048091AE028062A9
:100A00000E94620484E08093AF028CE00E94620442
:100A10000E94680482E08093B00286E0DF91CF916B
:100A20000C946204643008F063E09091B20269179C
:100A300010F06FEF690FE62FF0E0E156FD4F94895B
:100A4000890F80680C94620441E00E940F0481E0E9
:100A500090E00895089580E090E00895009769F08F
:100A6000FC0101900020E9F73197AF01481B590BB9
:100A7000BC018FE992E00C94A20380E090E008951D
:100A80000E945F071F920F920FB60F9211242F93AF
:100A90003F938F939F93AF93BF9380912C0290913C
:100AA0002D02A0912E02B0912F023091270223E057
:100AB000230F2D3720F40196A11DB11D05C026E896
:100AC000230F0296A11DB11D2093270280932C02B3
:100AD00090932D02A0932E02B0932F0280912802B2
:100AE00090912902A0912A02B0912B020196A11D9A
:100AF000B11D8093280290932902A0932A02B093FB
:100B00002B02BF91AF919F918F913F912F910F90A9
:100B10000FBE0F901F901895789484B5826084BDA5
:100B200084B5816084BD85B5826085BD85B58160F1
:100B300085BD80916E00816080936E00109281006F
:100B4000809181008260809381008091810081602A
:100B500080938100809180008160809380008091EB
:100B6000B10084608093B1008091B0008160809377
:100B7000B00080917A00846080937A0080917A003E
:100B8000826080937A0080917A00816080937A00FD
:100B900080917A00806880937A001092C10064E0AE
:100BA00084E10E94700460E080E00E94120582E30C
:100BB00091E00E942E0561E080E00E94120585E42C
:100BC00091E00E942E0562E080E00E94120589E516
:100BD00091E00E942E0563E080E00E94120582E60B
:100BE00091E00E942E0561E08EE00E94A80161E084
:100BF0008FE00E94A80161E080E10E94A801C0E0AE
:100C0000D0E00E94E80180932602833409F0BDC041
:100C10000E94680460E080E00E94120585E791E090
:100C20000E942E0562E080E00E94120580E891E0BB
:100C30000E942E0510922302109222021092250289
:100C4000109224021092210210922002809126021A
:100C50008D3309F43FC00E94E80180932602882367
:100C6000A9F38D3399F361E0809120020E9412056F
:100C70008EE891E00E942E05809120029091210241
:100C800001969093210280932002209122023091BC
:100C90002302F901E25DFE4F5081409126028091CE
:100CA00024029091250254130FC02430310560F4C2
:100CB000019690932502809324022F5F3F4F30933B
:100CC000230220932202C2CF0197909325028093A2
:100CD0002402BCCF1092260280912402909125021A
:100CE000049799F50E94680480E991E00E942E051E
:100CF00061E080E00E9412058EE991E00E942E05DD
:100D000061E08EE00E94750161E08FE00E94750154
:100D10000E946A0360E08FE00E9475010E946804EF
:100D200087EA91E00E942E0562E080E00E941205B1
:100D300089EB91E00E942E0563E080E00E9412059D
:100D40008AEC91E00E942E0520C00E94680483ED89
:100D500091E00E942E0561E080E00E94120585EE80
:100D600091E00E942E0562E080E00E94120585EF6E
:100D700091E00E942E0561E080E10E9475010E94D1
:100D80006A0360E080E10E94750180912602883547
:100D900091F40E94680460E08EE00E9475018BEF80
:100DA00091E00E942E0561E080E00E9412058EE035
:100DB00092E00E942E05209709F423CF0E940000A4
:100DC00020CF1092A2021092A10286E291E09093AD
:100DD000A00280939F028DE08093A3028FEF809307
:100DE000A4028CE08093A5028BE08093A6028AE0A7
:100DF0008093A70289E08093A80288E08093A902EB
:100E00001092AA021092AB021092AC021092AD02A4
:100E10001092AE0261E080E10E94700410923202F2
:100E20001092360210923502109237028CE191E056
:100E30009093310280933002E0E3F2E0148E10A22E
:100E4000178E11A2369682E0EC36F807B9F784E0E7
:100E500091E0909393028093920280E091E09093CE
:100E600095028093940284E0809396028093970287
:100E700088E091E090939102809390028AE090E064
:100E8000909399028093980284EF91E090939B0253
:100E900080939A0210929E0210929D0210928C02F0
:100EA00010928D0210928E0210928F0210929C026C
:100EB0000895EE0FFF1F0590F491E02D099481E055
:0C0EC00090E0F8940C946407F894FFCFC5
:100ECC0004050607000102033738392F343536582C
:100EDC003132332D43303D2B00000000E401A401DE
:100EEC007201000000002405A2032B052A053132F3
:100EFC003334202054484520425249474854204C12
:100F0C0049474854002050617373776F72642044D2
:100F1C006F6F72204C6F636B002050726573733A65
:100F2C00200020433A20556E6C6F636B2020583A9A
:100F3C004C6F636B00456E74657220436F64650083
:100F4C00616E6420507265737320273D27002A0060
:100F5C0053756365737366756C6C2E2E2E00556E0F
:100F6C006C6F636B656400446F6F722069732055FE
:100F7C006E6C6F636B65642E0050726573732058D2
:100F8C0020546F204C6F636B200054686520446FB5
:100F9C006F720057726F6E672050617373776F7248
:100FAC00642E2121005072657373204320616E649E
:100FBC002054727900416761696E004C6F636B65F8
:100FCC00643A205072657373204320546F00556E41
:100FDC006C6F636B2074686520446F6F7221210005
:00000001FF
